{
  "address": "0xe7f1725E7734CE288F8367e1Bb143E90bb3F0512",
  "abi": [
    {
      "inputs": [
        {
          "internalType": "address",
          "name": "priceFeedAddress",
          "type": "address"
        }
      ],
      "stateMutability": "nonpayable",
      "type": "constructor"
    },
    {
      "inputs": [],
      "name": "NotOwner",
      "type": "error"
    },
    {
      "stateMutability": "payable",
      "type": "fallback"
    },
    {
      "inputs": [],
      "name": "MINIMUM_USD",
      "outputs": [
        {
          "internalType": "uint256",
          "name": "",
          "type": "uint256"
        }
      ],
      "stateMutability": "view",
      "type": "function"
    },
    {
      "inputs": [
        {
          "internalType": "address",
          "name": "",
          "type": "address"
        }
      ],
      "name": "addressToAmountFunded",
      "outputs": [
        {
          "internalType": "uint256",
          "name": "",
          "type": "uint256"
        }
      ],
      "stateMutability": "view",
      "type": "function"
    },
    {
      "inputs": [],
      "name": "fund",
      "outputs": [],
      "stateMutability": "payable",
      "type": "function"
    },
    {
      "inputs": [
        {
          "internalType": "uint256",
          "name": "",
          "type": "uint256"
        }
      ],
      "name": "funders",
      "outputs": [
        {
          "internalType": "address",
          "name": "",
          "type": "address"
        }
      ],
      "stateMutability": "view",
      "type": "function"
    },
    {
      "inputs": [],
      "name": "i_owner",
      "outputs": [
        {
          "internalType": "address",
          "name": "",
          "type": "address"
        }
      ],
      "stateMutability": "view",
      "type": "function"
    },
    {
      "inputs": [],
      "name": "priceFeed",
      "outputs": [
        {
          "internalType": "contract AggregatorV3Interface",
          "name": "",
          "type": "address"
        }
      ],
      "stateMutability": "view",
      "type": "function"
    },
    {
      "inputs": [],
      "name": "withdraw",
      "outputs": [],
      "stateMutability": "nonpayable",
      "type": "function"
    },
    {
      "stateMutability": "payable",
      "type": "receive"
    }
  ],
  "transactionHash": "0x1a60fc4df401b4bd2e616f87c345b522f8e03a4dfaecfbd2faa163d3ee6603f1",
  "args": [
    "0x5FbDB2315678afecb367f032d93F642f64180aa3"
  ],
  "numDeployments": 1,
  "solcInputHash": "35ba3611f682a12d22b3df6f79880317",
  "bytecode": "0x60a06040526802b5e3af16b188000060005534801561001d57600080fd5b50604051610eb0380380610eb0833981810160405281019061003f919061011d565b3373ffffffffffffffffffffffffffffffffffffffff1660808173ffffffffffffffffffffffffffffffffffffffff168152505080600360006101000a81548173ffffffffffffffffffffffffffffffffffffffff021916908373ffffffffffffffffffffffffffffffffffffffff1602179055505061014a565b600080fd5b600073ffffffffffffffffffffffffffffffffffffffff82169050919050565b60006100ea826100bf565b9050919050565b6100fa816100df565b811461010557600080fd5b50565b600081519050610117816100f1565b92915050565b600060208284031215610133576101326100ba565b5b600061014184828501610108565b91505092915050565b608051610d4461016c600039600081816102cd01526105520152610d446000f3fe6080604052600436106100745760003560e01c8063741bef1a1161004e578063741bef1a1461010c578063b60d428814610137578063dba6335f14610141578063dc0d3dff1461016c57610083565b80633ccfd60b1461008d5780633e47d6f3146100a45780636b69a592146100e157610083565b36610083576100816101a9565b005b61008b6101a9565b005b34801561009957600080fd5b506100a26102cb565b005b3480156100b057600080fd5b506100cb60048036038101906100c6919061078a565b61050c565b6040516100d891906107d0565b60405180910390f35b3480156100ed57600080fd5b506100f6610524565b60405161010391906107d0565b60405180910390f35b34801561011857600080fd5b5061012161052a565b60405161012e919061084a565b60405180910390f35b61013f6101a9565b005b34801561014d57600080fd5b50610156610550565b6040516101639190610874565b60405180910390f35b34801561017857600080fd5b50610193600480360381019061018e91906108bb565b610574565b6040516101a09190610874565b60405180910390f35b6000546101e1600360009054906101000a900473ffffffffffffffffffffffffffffffffffffffff16346105b390919063ffffffff16565b1015610222576040517f08c379a000000000000000000000000000000000000000000000000000000000815260040161021990610945565b60405180910390fd5b6001339080600181540180825580915050600190039060005260206000200160009091909190916101000a81548173ffffffffffffffffffffffffffffffffffffffff021916908373ffffffffffffffffffffffffffffffffffffffff16021790555034600260003373ffffffffffffffffffffffffffffffffffffffff1673ffffffffffffffffffffffffffffffffffffffff16815260200190815260200160002081905550565b7f000000000000000000000000000000000000000000000000000000000000000073ffffffffffffffffffffffffffffffffffffffff163373ffffffffffffffffffffffffffffffffffffffff1614610350576040517f30cd747100000000000000000000000000000000000000000000000000000000815260040160405180910390fd5b60005b6001805490508110156103fc5760006001828154811061037657610375610965565b5b9060005260206000200160009054906101000a900473ffffffffffffffffffffffffffffffffffffffff1690506000600260008373ffffffffffffffffffffffffffffffffffffffff1673ffffffffffffffffffffffffffffffffffffffff168152602001908152602001600020819055505080806103f4906109c3565b915050610353565b50600067ffffffffffffffff81111561041857610417610a0b565b5b6040519080825280602002602001820160405280156104465781602001602082028036833780820191505090505b506001908051906020019061045c929190610680565b5060003373ffffffffffffffffffffffffffffffffffffffff164760405161048390610a6b565b60006040518083038185875af1925050503d80600081146104c0576040519150601f19603f3d011682016040523d82523d6000602084013e6104c5565b606091505b5050905080610509576040517f08c379a000000000000000000000000000000000000000000000000000000000815260040161050090610acc565b60405180910390fd5b50565b60026020528060005260406000206000915090505481565b60005481565b600360009054906101000a900473ffffffffffffffffffffffffffffffffffffffff1681565b7f000000000000000000000000000000000000000000000000000000000000000081565b6001818154811061058457600080fd5b906000526020600020016000915054906101000a900473ffffffffffffffffffffffffffffffffffffffff1681565b6000806105bf836105ef565b90506000670de0b6b3a764000085836105d89190610aec565b6105e29190610b5d565b9050809250505092915050565b6000808273ffffffffffffffffffffffffffffffffffffffff1663feaf968c6040518163ffffffff1660e01b815260040160a060405180830381865afa15801561063d573d6000803e3d6000fd5b505050506040513d601f19601f820116820180604052508101906106619190610c1b565b5050509150506402540be400816106789190610c96565b915050919050565b8280548282559060005260206000209081019282156106f9579160200282015b828111156106f85782518260006101000a81548173ffffffffffffffffffffffffffffffffffffffff021916908373ffffffffffffffffffffffffffffffffffffffff160217905550916020019190600101906106a0565b5b509050610706919061070a565b5090565b5b8082111561072357600081600090555060010161070b565b5090565b600080fd5b600073ffffffffffffffffffffffffffffffffffffffff82169050919050565b60006107578261072c565b9050919050565b6107678161074c565b811461077257600080fd5b50565b6000813590506107848161075e565b92915050565b6000602082840312156107a05761079f610727565b5b60006107ae84828501610775565b91505092915050565b6000819050919050565b6107ca816107b7565b82525050565b60006020820190506107e560008301846107c1565b92915050565b6000819050919050565b600061081061080b6108068461072c565b6107eb565b61072c565b9050919050565b6000610822826107f5565b9050919050565b600061083482610817565b9050919050565b61084481610829565b82525050565b600060208201905061085f600083018461083b565b92915050565b61086e8161074c565b82525050565b60006020820190506108896000830184610865565b92915050565b610898816107b7565b81146108a357600080fd5b50565b6000813590506108b58161088f565b92915050565b6000602082840312156108d1576108d0610727565b5b60006108df848285016108a6565b91505092915050565b600082825260208201905092915050565b7f4469646e3b742073656e6420656e6f7567680000000000000000000000000000600082015250565b600061092f6012836108e8565b915061093a826108f9565b602082019050919050565b6000602082019050818103600083015261095e81610922565b9050919050565b7f4e487b7100000000000000000000000000000000000000000000000000000000600052603260045260246000fd5b7f4e487b7100000000000000000000000000000000000000000000000000000000600052601160045260246000fd5b60006109ce826107b7565b91507fffffffffffffffffffffffffffffffffffffffffffffffffffffffffffffffff8203610a00576109ff610994565b5b600182019050919050565b7f4e487b7100000000000000000000000000000000000000000000000000000000600052604160045260246000fd5b600081905092915050565b50565b6000610a55600083610a3a565b9150610a6082610a45565b600082019050919050565b6000610a7682610a48565b9150819050919050565b7f63616c6c206661696c6564000000000000000000000000000000000000000000600082015250565b6000610ab6600b836108e8565b9150610ac182610a80565b602082019050919050565b60006020820190508181036000830152610ae581610aa9565b9050919050565b6000610af7826107b7565b9150610b02836107b7565b9250828202610b10816107b7565b91508282048414831517610b2757610b26610994565b5b5092915050565b7f4e487b7100000000000000000000000000000000000000000000000000000000600052601260045260246000fd5b6000610b68826107b7565b9150610b73836107b7565b925082610b8357610b82610b2e565b5b828204905092915050565b600069ffffffffffffffffffff82169050919050565b610bad81610b8e565b8114610bb857600080fd5b50565b600081519050610bca81610ba4565b92915050565b6000819050919050565b610be381610bd0565b8114610bee57600080fd5b50565b600081519050610c0081610bda565b92915050565b600081519050610c158161088f565b92915050565b600080600080600060a08688031215610c3757610c36610727565b5b6000610c4588828901610bbb565b9550506020610c5688828901610bf1565b9450506040610c6788828901610c06565b9350506060610c7888828901610c06565b9250506080610c8988828901610bbb565b9150509295509295909350565b6000610ca182610bd0565b9150610cac83610bd0565b9250828202610cba81610bd0565b91507f80000000000000000000000000000000000000000000000000000000000000008414600084121615610cf257610cf1610994565b5b8282058414831517610d0757610d06610994565b5b509291505056fea26469706673582212201d71432733d1874595e8a9afddb3444cd29589fd19fea59f6190171122b3fc2264736f6c63430008110033",
  "devdoc": {
    "kind": "dev",
    "methods": {},
    "version": 1
  },
  "userdoc": {
    "kind": "user",
    "methods": {},
    "version": 1
  },
  "storageLayout": {
    "storage": [
      {
        "astId": 58,
        "contract": "contracts/FundMe.sol:FundMe",
        "label": "MINIMUM_USD",
        "offset": 0,
        "slot": "0",
        "type": "t_uint256"
      },
      {
        "astId": 61,
        "contract": "contracts/FundMe.sol:FundMe",
        "label": "funders",
        "offset": 0,
        "slot": "1",
        "type": "t_array(t_address)dyn_storage"
      },
      {
        "astId": 65,
        "contract": "contracts/FundMe.sol:FundMe",
        "label": "addressToAmountFunded",
        "offset": 0,
        "slot": "2",
        "type": "t_mapping(t_address,t_uint256)"
      },
      {
        "astId": 70,
        "contract": "contracts/FundMe.sol:FundMe",
        "label": "priceFeed",
        "offset": 0,
        "slot": "3",
        "type": "t_contract(AggregatorV3Interface)45"
      }
    ],
    "types": {
      "t_address": {
        "encoding": "inplace",
        "label": "address",
        "numberOfBytes": "20"
      },
      "t_array(t_address)dyn_storage": {
        "base": "t_address",
        "encoding": "dynamic_array",
        "label": "address[]",
        "numberOfBytes": "32"
      },
      "t_contract(AggregatorV3Interface)45": {
        "encoding": "inplace",
        "label": "contract AggregatorV3Interface",
        "numberOfBytes": "20"
      },
      "t_mapping(t_address,t_uint256)": {
        "encoding": "mapping",
        "key": "t_address",
        "label": "mapping(address => uint256)",
        "numberOfBytes": "32",
        "value": "t_uint256"
      },
      "t_uint256": {
        "encoding": "inplace",
        "label": "uint256",
        "numberOfBytes": "32"
      }
    }
  }
}